:020000040800F2
:100000000000012091120008D5120008D512000846
:10001000D5120008D5120008D51200080000000013
:10002000000000000000000000000000D5120008E1
:10003000D512000800000000D512000801020008D7
:10004000D5120008D5120008D5120008D5120008F4
:10005000D5120008D5120008D5120008D5120008E4
:10006000D5120008D5120008D5120008D5120008D4
:1000700009050008D5120008D5120008D51200089D
:10008000D5120008D5120008D5120008D5120008B4
:10009000D5120008D5120008D5120008D5120008A4
:1000A000D5120008D5120008D5120008D512000894
:1000B000D5120008D5120008D5120008D512000884
:1000C000D5120008D5120008D5120008D512000874
:1000D000D5120008D5120008D5120008D512000864
:1000E000D5120008D5120008D51200080000000043
:1000F0000000000000000000000000000000000000
:0C01000000000000000000005FF808F1A3
:10010C0010B5054C237833B9044B13B10448AFF345
:10011C0000800123237010BD380400200000000073
:10012C000C010008084B10B51BB108490848AFF387
:10013C0000800848036803B910BD074B002BFBD0A7
:10014C00BDE81040184700BF000000003C04002030
:10015C000C010008380400200000000080B483B0BB
:10016C0000AF03463960FB7197F90730002B0BDAAF
:10017C000D49FB7903F00F03043B3A68D2B212012C
:10018C00D2B20B441A7609E0084997F907303A685D
:10019C00D2B21201D2B20B4483F8002300BF0C3749
:1001AC00BD4680BC704700BF00ED00E000E100E000
:1001BC0080B582B000AF78607B68B3F1807F01D3EB
:1001CC00012311E00A4A7B6823F07F43013B536013
:1001DC000F214FF0FF30FFF7C1FF054B00229A6053
:1001EC00034B07221A60002318460837BD4680BD12
:1001FC0010E000E080B400AF064B1B68002B04D06D
:10020C00044B1B68013B034A136000BFBD4680BC16
:10021C00704700BF9005002080B483B000AF7860B9
:10022C00084B1B687A6802FB03F3074A136000BF94
:10023C00054B1B68002BFBD100BF0C37BD4680BCA7
:10024C00704700BF040000209005002080B584B0EA
:10025C0000AF78607B68002B01D164237B600D4A72
:10026C007B68B2FBF3F3FB604FF47A727B68B2FBF2
:10027C00F3F3094A1360094B1A68FB68B2FBF3F3FA
:10028C001846FFF795FF064A7B68136000BF1037CE
:10029C00BD4680BD40420F00040000200800002035
:1002AC000000002080B500AF0520FFF7CFFF00F065
:1002BC0021FA00BF80BD00BF80B58CB000AF3B1DE4
:1002CC00184600F00DFC0021134800F033FC1248D6
:1002DC0000F00CFB20237B62104B7B604FF480738F
:1002EC00FB6100233B6230233B6100237B61802355
:1002FC00BB614FF44053BB621023FB600023FB62D5
:10030C00074BBB603B1D1946034800F0ABFB00BF1D
:10031C003037BD4680BD00BF1C000240342C01406C
:10032C006005002080B500AF0E4B01221A60002141
:10033C000D4800F001FF00210C4800F0FBFB3021C0
:10034C000A4800F031FC01220621084800F00EFC9E
:10035C000121064800F0EEFB0121034800F0ECFE01
:10036C0000BF80BD64040020002C01401C00024032
:10037C0080B584B000AF786000233B7300237B739F
:10038C000023BB7307F10C0301227968184600F0B7
:10039C0059F900BF1037BD4680BD00BF80B489B08D
:1003AC0000AF78604D4B1B68BB617B68002B02D0A3
:1003BC004B4B7B6101E04B4B7B614B4B1A684B4BBE
:1003CC001B689A425FD24A4B1A6813461B019B1A50
:1003DC00DB00484A9918444B1A6813465B001344D7
:1003EC000B44FB608023FB6111E07B695A1C7A6132
:1003FC00FA681278D2B21146FA690A40002A01D082
:10040C00392200E021221A70FB695B08FB61FB6951
:10041C00002BEAD18023FB6111E07B695A1C7A61C5
:10042C00FA685278D2B21146FA690A40002A01D011
:10043C00392200E021221A70FB695B08FB61FB6921
:10044C00002BEAD18023FB6111E07B695A1C7A6195
:10045C00FA689278D2B21146FA690A40002A01D0A1
:10046C00392200E021221A70FB695B08FB61FB69F1
:10047C00002BEAD1BB691833BB611B4B1B680133E2
:10048C00194A136021E018233B610AE07B695A1C6E
:10049C007A6100221A70BB690133BB613B69013B75
:1004AC003B613B69002B0DD0134B1B68BA699A4218
:1004BC00ECD307E07B695A1C7A6100221A703B6905
:1004CC00013B3B613B69002BF4D1044ABB691360CF
:1004DC0000BF2437BD4680BC704700BF54040020C9
:1004EC0078050020600500205804002060040020DE
:1004FC0058050020680400205C04002080B500AF83
:10050C00402000F05FFB0346002B05D0402000F09C
:10051C0081FB0020FFF742FF202000F053FB034635
:10052C00002B13D0202000F075FB094B1A68094BE7
:10053C001B689A4203D20120FFF730FF06E000212E
:10054C00054800F0F7FA054B00221A6000BF80BD89
:10055C00540400205C0400201C00024064040020B1
:10056C0090B585B000AF78607B68282B01D9282323
:10057C007B6000BF2B4B1B68002BFBD12A4B1B68ED
:10058C002A4A1360284B1B68002B0CBF0123002345
:10059C00DBB21A46244B1A60254B00221A60254BFD
:1005AC0000221A607A6813465B001344DB004F3359
:1005BC00214A1360214A7B6813600020FFF7EEFE8E
:1005CC000120FFF7EBFEFFF7ADFE0023FB6021E0FF
:1005DC00154B1868154B1968194CFB681A465200D4
:1005EC001A4403461B011B1ADB0013441C44144819
:1005FC00FB681A4652001A440B461B015B1ADB00BF
:10060C001344C21823461188927819809A70FB689B
:10061C000133FB60FB68272BDAD900BF1437BD46CA
:10062C0090BD00BF640400205C050020580500202C
:10063C0054040020580400205C04002060040020B6
:10064C006804002090B587B000AFF860B9607A609C
:10065C00BB68282B01D92823BB6000237B6137E0C2
:10066C00224B1968FB681C7821487B691A4652009A
:10067C001A440B461B015B1ADB001344034422464D
:10068C001A701A4B1968FB685C7819487B691A4612
:10069C0052001A440B461B015B1ADB001344034443
:1006AC00013322461A70114B1968FB689C7810486C
:1006BC007B691A4652001A440B461B015B1ADB007D
:1006CC0013440344023322461A707B6901337B6165
:1006DC007A69BB689A42C3D37B68002B02D0B86896
:1006EC00FFF73EFF00BF1C37BD4690BD5C050020E8
:1006FC006804002080B58AB000AF484B00221A6015
:10070C0007F12403184600F05BFB0121042000F0E4
:10071C00B1FB4FF48073BB84282387F82730032365
:10072C0087F8263007F1240319463D4800F08CFA6F
:10073C000120FFF771FD4FF48071394800F054FB34
:10074C000346012B03D11C2387F8273002E0182322
:10075C0087F82730032387F8263007F1240319463E
:10076C002F4800F071FA4FF480712D4800F056FBC1
:10077C0007F11803184600F0A3FC07F1080318460C
:10078C0000F0B8FC01214FF4006000F073FB012174
:10079C00012000F051FB5A23BB8300233B83002331
:1007AC00FB8300237B8307F1180319461D4800F0D7
:1007BC007FFB60233B8101237B810023FB81002392
:1007CC003B8207F108031946164800F0EDFB08219F
:1007DC00144800F03BFD0121124800F017FD0121E7
:1007EC00104800F0C9FC01224FF400710D4800F0D4
:1007FC00E9FC0C233B7100237B710023BB710123AB
:10080C00FB713B1D184600F00FF8FFF755FD282033
:10081C00FFF7AEFD00BF2837BD4680BD6404002045
:10082C0000080140002C014080B487B000AF786014
:10083C0000237B6100233B610F23FB607B68DB782B
:10084C00002B3AD0274BDB68DB4303F4E0631B0A35
:10085C007B617B69C3F104033B61FA687B6922FA13
:10086C0003F3FB607B685B781A463B6902FA03F37F
:10087C007B617B689B781A46FB6813407A6913434B
:10088C007B617B691B017B61174A7B681B787969EB
:10089C00C9B213440A4683F80023134A7B681B78B9
:1008AC005B09DBB218467B681B7803F01F03012140
:1008BC0001FA03F342F820300FE00B497B681B78F8
:1008CC005B09DBB218467B681B7803F01F0301221F
:1008DC009A4000F1200341F8232000BF1C37BD468D
:1008EC0080BC704700ED00E000E100E080B483B014
:1008FC0000AF78607B681A684FF6FE7313407A6815
:10090C0013607B6800221A607B6800225A607B6847
:10091C0000229A607B680022DA607B68434A93422B
:10092C0006D1434A424B5B6843F00F03536077E0B8
:10093C007B68404A934206D13D4A3D4B5B6843F08D
:10094C00F00353606CE07B683B4A934206D1384A13
:10095C00374B5B6843F47063536061E07B68374AE4
:10096C00934206D1324A324B5B6843F47043536076
:10097C0056E07B68324A934206D12D4A2C4B5B6879
:10098C0043F4702353604BE07B682E4A934206D1AC
:10099C00274A274B5B6843F47003536040E07B6845
:1009AC00294A934206D1224A214B5B6843F070637B
:1009BC00536035E07B68254A934206D1244A244B88
:1009CC005B6843F00F0353602AE07B68214A934233
:1009DC0006D11F4A1E4B5B6843F0F00353601FE0C7
:1009EC007B681D4A934206D1194A194B5B6843F444
:1009FC007063536014E07B68184A934206D1144A22
:100A0C00134B5B6843F47043536009E07B68144AF2
:100A1C00934205D10E4A0E4B5B6843F4702353602E
:100A2C0000BF0C37BD4680BC704700BF08000240B9
:100A3C00000002401C000240300002404400024012
:100A4C00580002406C000240800002400804024042
:100A5C00000402401C0402403004024044040240E2
:100A6C005804024080B485B000AF78603960002330
:100A7C00FB607B681B68FB60FB6823F4FF4323F07F
:100A8C007003FB603B689A683B681B6A1A433B68BF
:100A9C001B691A433B685B691A433B689B691A43A1
:100AAC003B68DB691A433B685B6A1A433B689B6A89
:100ABC001343FA681343FB607B68FA681A603B685F
:100ACC00DA687B685A603B681A687B689A603B6896
:100ADC005A687B68DA6000BF1437BD4680BC70472B
:100AEC0080B483B000AF78607B6800221A607B68AA
:100AFC0000225A607B6800229A607B680022DA60D0
:100B0C007B6800221A617B6800225A617B68002294
:100B1C009A617B680022DA617B6800221A627B682A
:100B2C0000225A627B6800229A6200BF0C37BD46D5
:100B3C0080BC704780B483B000AF78600B46FB700C
:100B4C00FB78002B06D07B681B6843F001027B68A6
:100B5C001A6006E07B681A684FF6FE7313407A68D9
:100B6C00136000BF0C37BD4680BC704780B485B0A5
:100B7C0000AFF860B9601346FB71FB79002B06D00F
:100B8C00FB681A68BB681A43FB681A6006E0FB68CE
:100B9C001A68BB68DB431A40FB681A6000BF143745
:100BAC00BD4680BC704700BF80B483B000AF786096
:100BBC000B467B807A887B685A6000BF0C37BD4639
:100BCC0080BC704780B485B000AF78600023FB73A5
:100BDC000023BB607B6803F08053002B03D00B4BCE
:100BEC001B68BB6002E00A4B1B68BB60BA687B6881
:100BFC001340002B02D00123FB7301E00023FB7395
:100C0C00FB7B18461437BD4680BC7047000402407D
:100C1C000000024080B483B000AF78607B6803F0C2
:100C2C008053002B03D0064A7B68536002E0054AD0
:100C3C007B68536000BF0C37BD4680BC704700BF5B
:100C4C00000402400000024080B489B000AF78601C
:100C5C0039600023FB6100233B610023BB6100234F
:100C6C00FB6000237B610023BB603B68DB7803F0F7
:100C7C000F03FB613B68DB7803F01003002B05D0FE
:100C8C003B689B781A46FB691343FB613B681B88E6
:100C9C00DBB2002B44D07B681B687B610023BB61FB
:100CAC0038E00122BB6902FA03F3FB603B681B8846
:100CBC001A46FB6813403B613A69FB689A4226D19D
:100CCC00BB699B00FB600F22FB6802FA03F3BB605D
:100CDC00BB68DB437A6913407B61FA69FB6802FAF3
:100CEC0003F37A6913437B613B68DB78282B05D1CE
:100CFC000122BB699A407B685A6108E03B68DB784B
:100D0C00482B04D10122BB699A407B681A61BB69EC
:100D1C000133BB61BB69072BC3D97B687A691A6045
:100D2C003B681B88FF2B46D97B685B687B61002383
:100D3C00BB613AE0BB690833012202FA03F3FB60A2
:100D4C003B681B881A46FB6813403B613A69FB6899
:100D5C009A4227D1BB699B00FB600F22FB6802FA09
:100D6C0003F3BB60BB68DB437A6913407B61FA69B0
:100D7C00FB6802FA03F37A6913437B613B68DB7807
:100D8C00282B05D1BB69083301229A407B685A6134
:100D9C003B68DB78482B05D1BB69083301229A40AC
:100DAC007B681A61BB690133BB61BB69072BC1D975
:100DBC007B687A695A6000BF2437BD4680BC704797
:100DCC0080B483B000AF78607B684FF6FF721A80F6
:100DDC007B6802229A707B680422DA7000BF0C37A1
:100DEC00BD4680BC704700BF80B485B000AF786052
:100DFC000B467B800023FB737B689A687B881340CF
:100E0C00002B02D00123FB7301E00023FB73FB7B5F
:100E1C0018461437BD4680BC704700BF80B483B001
:100E2C0000AF78600B467B807A887B685A6100BF84
:100E3C000C37BD4680BC704780B483B000AF78607F
:100E4C000B46FB70FB78002B06D00949084B5A69FE
:100E5C007B6813434B6106E00549054B5A697B6877
:100E6C00DB4313404B6100BF0C37BD4680BC704761
:100E7C000010024080B483B000AF78600B46FB706A
:100E8C00FB78002B06D00949084B9A697B68134301
:100E9C008B6106E00549054B9A697B68DB4313407F
:100EAC008B6100BF0C37BD4680BC70470010024000
:100EBC0080B485B000AF786039600023FB817B681B
:100ECC001B88FB817B682E4A934213D07B682D4A8A
:100EDC0093420FD07B68B3F1804F0BD07B682A4ACA
:100EEC00934207D07B68294A934203D07B68284AF7
:100EFC00934208D1FB8923F07003FB813B685A882D
:100F0C00FB891343FB817B68224A93420CD07B689C
:100F1C00214A934208D0FB8923F44073FB813B6840
:100F2C00DA88FB891343FB817B68FA891A803B685A
:100F3C009A887B689A853B681A887B681A857B68D7
:100F4C000F4A93420FD07B680E4A93420BD07B68BA
:100F5C00124A934207D07B68114A934203D07B68B4
:100F6C00104A934204D13B681B7A9AB27B681A866A
:100F7C007B6801229A8200BF1437BD4680BC704743
:100F8C00002C0140003401400004004000080040E7
:100F9C00000C0040001000400014004000400140D4
:100FAC00004401400048014080B485B000AF786037
:100FBC00396000237B810023FB810023BB817B688C
:100FCC001B8C9BB223F001039AB27B681A847B685A
:100FDC001B8CFB817B689B88BB817B681B8B7B811B
:100FEC007B8923F070037B817B8923F003037B8156
:100FFC003B681A887B8913437B81FB8923F00203AE
:10100C00FB813B681A89FB891343FB813B685A8837
:10101C00FB891343FB817B68244A93420FD07B6886
:10102C00234A93420BD07B68224A934207D07B68B9
:10103C00214A934203D07B68204A934223D1FB89F7
:10104C0023F00803FB813B685A89FB891343FB811E
:10105C00FB8923F00403FB813B689A88FB891343CB
:10106C00FB81BB8923F48073BB81BB8923F40073A0
:10107C00BB813B689A89BB891343BB813B68DA8986
:10108C00BB891343BB817B68BA899A807B687A8958
:10109C001A833B68DA887B689A867B68FA891A849B
:1010AC0000BF1437BD4680BC704700BF002C014008
:1010BC000034014000400140004401400048014020
:1010CC0080B483B000AF78607B684FF6FF729A8073
:1010DC007B6800221A807B680022DA807B68002201
:1010EC005A807B6800221A7200BF0C37BD4680BC48
:1010FC00704700BF80B483B000AF78607B6800227B
:10110C001A807B6800225A807B6800229A807B6858
:10111C000022DA807B6800221A817B6800225A81C7
:10112C007B6800229A817B680022DA8100BF0C3731
:10113C00BD4680BC704700BF80B483B000AF786000
:10114C000B46FB70FB78002B08D07B681B889BB28E
:10115C0043F001039AB27B681A8007E07B681B8816
:10116C009BB223F001039AB27B681A8000BF0C3744
:10117C00BD4680BC704700BF80B483B000AF7860C0
:10118C000B46FB70FB78002B0CD07B68B3F844301B
:10119C009BB26FEA43436FEA53439AB27B68A3F85E
:1011AC00442009E07B68B3F844309BB2C3F30E03D0
:1011BC009AB27B68A3F8442000BF0C37BD4680BCB4
:1011CC00704700BF80B483B000AF78600B467B8063
:1011DC0013467B707B78002B08D07B689B899AB276
:1011EC007B8813439AB27B689A8109E07B689B8960
:1011FC009AB27B88DB439BB213409AB27B689A818C
:10120C0000BF0C37BD4680BC704700BF80B483B0B4
:10121C0000AF78600B46FB70FB78002B08D07B6826
:10122C001B889BB243F080039AB27B681A8007E05C
:10123C007B681B889BB223F080039AB27B681A8070
:10124C0000BF0C37BD4680BC704700BF80B485B072
:10125C0000AF78600B467B800023FB817B681B8B87
:10126C00FB81FB8923F00803FB81FA897B881343FC
:10127C00FB817B68FA891A8300BF1437BD4680BC9A
:10128C00704700BF002103E00A4B5B584350043108
:10129C0009480A4B42189A42F6D3094A02E0002345
:1012AC0042F8043B074B9A42F9D300F00FF8FEF7D3
:1012BC00F9FF70476015000800000020380400207A
:1012CC003804002094050020FEE7000080B500AF34
:1012DC00154A154B1B6843F0010313601249124B5E
:1012EC005A68124B13404B600F4A0F4B1B6823F08C
:1012FC00847323F4803313600B4A0B4B1B6823F469
:10130C0080231360084A084B5B6823F4FE03536088
:10131C00054B4FF41F029A6000F00CF8044B4FF091
:10132C0000629A6000BF80BD001002400000FFF810
:10133C0000ED00E080B500AF00F002F800BF80BD0A
:10134C0080B483B000AF00237B6000233B603A4A3B
:10135C00394B1B6843F480331360374B1B6803F421
:10136C0000333B607B6801337B603B68002B03D10F
:10137C007B68B3F5A06FF0D12F4B1B6803F40033DF
:10138C00002B02D001233B6001E000233B603B6853
:10139C00012B4BD1294A294B1B6843F010031360D6
:1013AC00264A264B1B6823F003031360234A234B66
:1013BC001B6843F0020313601F4A1F4B5B685360AA
:1013CC001D4A1D4B5B6853601B4A1B4B5B6843F407
:1013DC0080635360184A184B5B6823F47C1353608A
:1013EC00154A154B5B6843F4E8135360124A124BD1
:1013FC001B6843F08073136000BF0F4B1B6803F036
:10140C000073002BF9D00C4A0B4B5B6823F00303E1
:10141C005360094A084B5B6843F00203536000BFFA
:10142C00054B5B6803F00C03082BF9D100BF0C379C
:10143C00BD4680BC704700BF001002400020024037
:10144C00024B13B1024800F005B8704700000000D1
:10145C006D140008002301461A46184600F014B813
:10146C0038B5074D074C2C1BA41005D0013C55F882
:10147C00043D9847002CF9D1BDE8384000F05EB827
:10148C00601500085C1500082DE9F047254C064650
:10149C0025688846D5F8484192469946C4B3606899
:1014AC001F2817DC411C76B104EB8003C3F888A01D
:1014BC00D4F88851012282401543022EC4F8885179
:1014CC00C3F808911ED0831C6160002044F823806F
:1014DC00BDE8F087144B03B34FF4C870AFF3008032
:1014EC000446D0B1D5F84831002784E88800384646
:1014FC00C5F848410121C4F88871C4F88C71002EDC
:10150C00E1D0D1E7D4F88C311A43C4F88C21DAE756
:10151C0005F5A674C5F84841C1E74FF0FF30BDE8AA
:10152C00F08700BF381500080000000010000020F4
:10153C00F8B500BFF8BC08BC9E467047F8B500BFB4
:08154C00F8BC08BC9E46704784
:081554004D14000831010008EC
:04155C000D01000875
:10156000640000000A00000000A24A04000000001D
:1015700000000000FC02002064030020CC030020D7
:10158000000000000000000000000000000000005B
:10159000000000000000000000000000000000004B
:1015A000000000000000000000000000000000003B
:1015B000000000000000000000000000000000002B
:1015C000000000000000000000000000000000001B
:1015D000000000000000000000000000000000000B
:1015E00000000000000000000000000000000000FB
:1015F00000000000000000000000000000000000EB
:1016000000000000000000000000000000000000DA
:1016100000000000000000000100000000000000C9
:101620000E33CDAB34126DE6ECDE05000B0000008E
:1016300000000000000000000000000000000000AA
:10164000000000000000000000000000000000009A
:10165000000000000000000000000000000000008A
:10166000000000000000000000000000000000007A
:04000005080012914C
:00000001FF
