:020000040800F2
:1000000000500020B1070008F5070008F5070008B8
:10001000F5070008F5070008F507000800000000D4
:10002000000000000000000000000000F5070008CC
:10003000F507000800000000F507000801020008AD
:10004000F5070008F5070008F5070008F5070008A0
:10005000F5070008F5070008F5070008F507000890
:10006000F5070008F5070008F5070008F507000880
:1000700079040008F5070008F5070008F5070008EF
:10008000F5070008F5070008F5070008F507000860
:10009000F5070008F5070008F5070008F507000850
:1000A000F5070008F5070008F5070008F507000840
:1000B000F5070008F5070008F5070008F507000830
:1000C000F5070008F5070008F5070008F507000820
:1000D000F5070008F5070008F5070008F507000810
:1000E000F5070008F5070008F50700080000000004
:1000F0000000000000000000000000000000000000
:0C01000000000000000000005FF808F1A3
:10010C0010B5054C237833B9044B13B10448AFF345
:10011C0000800123237010BD380400200000000073
:10012C000C010008084B10B51BB108490848AFF387
:10013C0000800848036803B910BD074B002BFBD0A7
:10014C00BDE81040184700BF000000003C04002030
:10015C000C010008380400200000000080B483B0BB
:10016C0000AF03463960FB7197F90730002B0BDAAF
:10017C000D49FB7903F00F03043B3A68D2B212012C
:10018C00D2B20B441A7609E0084997F907303A685D
:10019C00D2B21201D2B20B4483F8002300BF0C3749
:1001AC00BD4680BC704700BF00ED00E000E100E000
:1001BC0080B582B000AF78607B68B3F1807F01D3EB
:1001CC00012311E00A4A7B6823F07F43013B536013
:1001DC000F214FF0FF30FFF7C1FF054B00229A6053
:1001EC00034B07221A60002318460837BD4680BD12
:1001FC0010E000E080B400AF064B1B68002B04D06D
:10020C00044B1B68013B034A136000BFBD4680BC16
:10021C00704700BF8C05002080B483B000AF7860BD
:10022C00084B1B687A6802FB03F3074A136000BF94
:10023C00054B1B68002BFBD100BF0C37BD4680BCA7
:10024C00704700BF040000208C05002080B584B0EE
:10025C0000AF78607B68002B01D164237B600D4A72
:10026C007B68B2FBF3F3FB604FF47A727B68B2FBF2
:10027C00F3F3094A1360094B1A68FB68B2FBF3F3FA
:10028C001846FFF795FF064A7B68136000BF1037CE
:10029C00BD4680BD40420F00040000200800002035
:1002AC000000002080B582B000AF0520FFF7CEFF24
:1002BC000121102000F058FA4FF40053BB8010239A
:1002CC00FB710323BB713B1D19460F4800F05EF90F
:1002DC0000224FF400510C4800F02EFA4FF4FA7043
:1002EC00FFF79AFF4FF40051074800F00BFA034652
:1002FC00002B0CBF01230023DBB21A464FF4005134
:10030C00014800F019FAE9E70010014080B489B007
:10031C0000AF78604D4B1B68BB617B68002B02D033
:10032C004B4B7B6101E04B4B7B614B4B1A684B4B4E
:10033C001B689A425FD24A4B1A6813461B019B1AE0
:10034C00DB00484A9918444B1A6813465B00134467
:10035C000B44FB608023FB6111E07B695A1C7A61C2
:10036C00FA681278D2B21146FA690A40002A01D012
:10037C00392200E021221A70FB695B08FB61FB69E2
:10038C00002BEAD18023FB6111E07B695A1C7A6156
:10039C00FA685278D2B21146FA690A40002A01D0A2
:1003AC00392200E021221A70FB695B08FB61FB69B2
:1003BC00002BEAD18023FB6111E07B695A1C7A6126
:1003CC00FA689278D2B21146FA690A40002A01D032
:1003DC00392200E021221A70FB695B08FB61FB6982
:1003EC00002BEAD1BB691833BB611B4B1B68013373
:1003FC00194A136021E018233B610AE07B695A1CFF
:10040C007A6100221A70BB690133BB613B69013B05
:10041C003B613B69002B0DD0134B1B68BA699A42A8
:10042C00ECD307E07B695A1C7A6100221A703B6995
:10043C00013B3B613B69002BF4D1044ABB6913605F
:10044C0000BF2437BD4680BC704700BF5404002059
:10045C00740500205C050020580400206004002076
:10046C0058050020680400205C04002080B500AF13
:10047C00402000F049F80346002B05D0402000F046
:10048C006BF80020FFF742FF202000F03DF80346F8
:10049C00002B13D0202000F05FF8094B1A68094B91
:1004AC001B689A4203D20120FFF730FF06E00021BF
:1004BC00054800F00DF8054B00221A6000BF80BD06
:1004CC00540400205C0400201C0002406404002042
:1004DC0080B483B000AF78600B46FB70FB78002BC8
:1004EC0006D07B681B6843F001027B681A6006E04B
:1004FC007B681A684FF6FE7313407A68136000BF6E
:10050C000C37BD4680BC704780B485B000AF7860B6
:10051C000023FB730023BB607B6803F08053002B2C
:10052C0003D00B4B1B68BB6002E00A4B1B68BB6023
:10053C00BA687B681340002B02D00123FB7301E0E7
:10054C000023FB73FB7B18461437BD4680BC7047F9
:10055C00000402400000024080B483B000AF786019
:10056C007B6803F08053002B03D0064A7B685360F2
:10057C0002E0054A7B68536000BF0C37BD4680BC67
:10058C00704700BF000402400000024080B489B0F4
:10059C0000AF786039600023FB6100233B610023CE
:1005AC00BB610023FB6000237B610023BB603B68C5
:1005BC00DB7803F00F03FB613B68DB7803F010037F
:1005CC00002B05D03B689B781A46FB691343FB61F3
:1005DC003B681B88DBB2002B44D07B681B687B61BB
:1005EC000023BB6138E00122BB6902FA03F3FB6014
:1005FC003B681B881A46FB6813403B613A69FB68F1
:10060C009A4226D1BB699B00FB600F22FB6802FA61
:10061C0003F3BB60BB68DB437A6913407B61FA6907
:10062C00FB6802FA03F37A6913437B613B68DB785E
:10063C00282B05D10122BB699A407B685A6108E0DE
:10064C003B68DB78482B04D10122BB699A407B685C
:10065C001A61BB690133BB61BB69072BC3D97B68CA
:10066C007A691A603B681B88FF2B46D97B685B68EC
:10067C007B610023BB613AE0BB690833012202FABB
:10068C0003F3FB603B681B881A46FB6813403B6115
:10069C003A69FB689A4227D1BB699B00FB600F2229
:1006AC00FB6802FA03F3BB60BB68DB437A69134057
:1006BC007B61FA69FB6802FA03F37A6913437B6185
:1006CC003B68DB78282B05D1BB69083301229A40A3
:1006DC007B685A613B68DB78482B05D1BB690833D2
:1006EC0001229A407B681A61BB690133BB61BB690B
:1006FC00072BC1D97B687A695A6000BF2437BD4685
:10070C0080BC704780B485B000AF78600B467B80AE
:10071C000023FB737B68DA687B881340002B02D0C4
:10072C000123FB7301E00023FB73FB7B184614379A
:10073C00BD4680BC704700BF80B483B000AF78600A
:10074C000B467B8013467B707B78002B03D07A881A
:10075C007B681A6102E07A887B685A6100BF0C37AB
:10076C00BD4680BC704700BF80B483B000AF7860DA
:10077C000B46FB70FB78002B06D00949084B9A6995
:10078C007B6813438B6106E00549054B9A697B68CE
:10079C00DB4313408B6100BF0C37BD4680BC7047F8
:1007AC0000100240002103E00A4B5B584350043117
:1007BC0009480A4B42189A42F6D3094A02E0002330
:1007CC0042F8043B074B9A42F9D300F00FF8FFF7BD
:1007DC0069FD7047800A00080000002038040020E2
:1007EC003804002090050020FEE7000080B500AF23
:1007FC00154A154B1B6843F0010313601249124B49
:10080C005A68124B13404B600F4A0F4B1B6823F076
:10081C00847323F4803313600B4A0B4B1B6823F453
:10082C0080231360084A084B5B6823F4FE03536073
:10083C00054B4FF41F029A6000F00CF8044B4FF07C
:10084C0000629A6000BF80BD001002400000FFF8FB
:10085C0000ED00E080B500AF00F002F800BF80BDF5
:10086C0080B483B000AF00237B6000233B603A4A26
:10087C00394B1B6843F480331360374B1B6803F40C
:10088C0000333B607B6801337B603B68002B03D1FA
:10089C007B68B3F5A06FF0D12F4B1B6803F40033CA
:1008AC00002B02D001233B6001E000233B603B683E
:1008BC00012B4BD1294A294B1B6843F010031360C1
:1008CC00264A264B1B6823F003031360234A234B51
:1008DC001B6843F0020313601F4A1F4B5B68536095
:1008EC001D4A1D4B5B6853601B4A1B4B5B6843F4F2
:1008FC0080635360184A184B5B6823F47C13536075
:10090C00154A154B5B6843F4E8135360124A124BBB
:10091C001B6843F08073136000BF0F4B1B6803F020
:10092C000073002BF9D00C4A0B4B5B6823F00303CC
:10093C005360094A084B5B6843F00203536000BFE5
:10094C00054B5B6803F00C03082BF9D100BF0C3787
:10095C00BD4680BC704700BF001002400020024022
:10096C00024B13B1024800F005B8704700000000BC
:10097C008D090008002301461A46184600F014B8E9
:10098C0038B5074D074C2C1BA41005D0013C55F86D
:10099C00043D9847002CF9D1BDE8384000F05EB812
:1009AC00800A00087C0A00082DE9F047254C064611
:1009BC0025688846D5F8484192469946C4B3606884
:1009CC001F2817DC411C76B104EB8003C3F888A008
:1009DC00D4F88851012282401543022EC4F8885164
:1009EC00C3F808911ED0831C6160002044F823805A
:1009FC00BDE8F087144B03B34FF4C870AFF300801D
:100A0C000446D0B1D5F84831002784E88800384630
:100A1C00C5F848410121C4F88871C4F88C71002EC6
:100A2C00E1D0D1E7D4F88C311A43C4F88C21DAE741
:100A3C0005F5A674C5F84841C1E74FF0FF30BDE895
:100A4C00F08700BF580A00080000000010000020CA
:100A5C00F8B500BFF8BC08BC9E467047F8B500BF9F
:080A6C00F8BC08BC9E4670476F
:080A74006D09000831010008C2
:040A7C000D01000860
:100A8000640000000A00000000A24A040000000008
:100A900000000000FC02002064030020CC030020C2
:100AA0000000000000000000000000000000000046
:100AB0000000000000000000000000000000000036
:100AC0000000000000000000000000000000000026
:100AD0000000000000000000000000000000000016
:100AE0000000000000000000000000000000000006
:100AF00000000000000000000000000000000000F6
:100B000000000000000000000000000000000000E5
:100B100000000000000000000000000000000000D5
:100B200000000000000000000000000000000000C5
:100B300000000000000000000100000000000000B4
:100B40000E33CDAB34126DE6ECDE05000B00000079
:100B50000000000000000000000000000000000095
:100B60000000000000000000000000000000000085
:100B70000000000000000000000000000000000075
:100B80000000000000000000000000000000000065
:04000005080007B137
:00000001FF
